:020000040800F2
:100000001009002019010008891200088D1000084D
:1000100091100008790200089D19000800000000F6
:10002000000000000000000000000000AB18000805
:10003000D70F00080000000025130008AD180008C5
:1000400033010008330100083301000833010008C0
:1000500033010008330100083301000833010008B0
:1000600033010008330100083301000833010008A0
:100070003301000833010008330100083301000890
:100080003301000833010008330100083301000880
:100090003301000833010008330100083301000870
:1000A0003301000833010008330100083301000860
:1000B0003301000815190008330100083301000856
:1000C0003301000833010008330100083301000840
:1000D0003301000833010008330100083301000830
:1000E000330100083301000833010008000000005C
:1000F0000000000000000000000000000000000000
:1001000033010008DFF80CD000F0A4F800480047E5
:10011000D122000810090020064880470648004701
:10012000FEE7FEE7FEE7FEE7FEE7FEE7FEE7FEE7A7
:10013000FEE7FEE7B11800080501000880EA0102A9
:1001400010B502F00043400022D04A001FD0010E3B
:1001500001EB1261C0F35600C2F3560240F40000F6
:1001600042F40002A0FB022000047F39140400D0F6
:10017000401C50EA124001D44000491EC2B20C0695
:1001800004EBD010401C4008802A02D003E000207D
:1001900010BD20F00100002900DA0020184310BD36
:1001A000C10F80EAE0700844CA079623002100F0DE
:1001B00022B800F0004220F00040C10DC0F316004C
:1001C00040F400007F2901DA00207047962903DC03
:1001D000C1F19601C84001E096398840002AF4D068
:1001E000404270470029A8BF7047401C490008BF23
:1001F00020F00100704710B4B0FA80FC00FA0CF057
:1002000050EA010404BF10BC704749B1CCF120048E
:1002100021FA04F411FA0CF118BF0121214308431B
:10022000A3EB0C01CB1D4FEA00614FEA102042BF47
:10023000002010BC704700EBC35010440029A4BF3D
:1002400010BC7047401C490008BF20F0010010BCE2
:1002500070470000064C074D06E0E06840F00103DF
:1002600094E8070098471034AC42F6D3FFF74EFFEE
:10027000143300083433000800BFFEE770B560484F
:100280004079052806D2DFE800F00306096AB700C6
:1002900001F074FAB1E001F071FAAEE058488479E7
:1002A000C079000200B25749096821F81400554886
:1002B000006830F814105248007A084400B25149DE
:1002C000096821F814004E48407A00064E49C86279
:1002D0000846C16A4A48807A01EB00404A49C86230
:1002E0000846C16A4648C07A01EB00204649C86208
:1002F0000846C16A4248007B08444349C862084630
:10030000C06A424948604049B1F91E00FFF748FF02
:1003100006463F49FFF712FF0546FFF74AFF3B49F4
:100320008860084640688969884208DA37488068EA
:10033000002804DD354880684042344988603348ED
:10034000406832498969884208DD30488068002861
:1003500004DA2E48806840422C4988604DE02848E5
:100360008479C079000200B22649096821F8140096
:100370002448006830F814102148007A084400B27C
:100380002049096821F814001F48008810B900F0BE
:100390007CFF07E000F0CAFC1C4880691B494860EC
:1003A00000F082FF00211B48C1731548407A1228D3
:1003B00009D11548B0F902001649086000F080FF25
:1003C00001211448C17310484089012804D1010358
:1003D000114801F0DDFE07E00B48408920B94FF4D9
:1003E00080510D4801F0D2FE00210A480174417489
:1003F000817401F0C3F900E000BF00BF70BD0000D0
:10040000040100203800002068000020B80000200F
:1004100033535544600100200008014000B589B005
:1004200040F2197002F008F840F2036002F004F89C
:100430004FF4C06002F000F84FF4807303224821AB
:100440002E4801F0A7FE4FF40073032218212B4819
:1004500001F0A0FE01214FF4EA1001F0F1FE06A91F
:10046000002001F0D1FC264801F0FCFA244801F0FC
:10047000F9FA00208DF81C008DF81D008DF81E0083
:100480008DF81F008DF820008DF821008DF81800E0
:100490008DF8190004208DF81A0002208DF81B0039
:1004A0000620ADF8220006A9154801F073FB0020D4
:1004B000ADF80E00ADF810000120ADF812000020DC
:1004C000ADF80400ADF80600ADF80800ADF80A007C
:1004D000ADF80C0001208DF8140001A801F0D2FA4B
:1004E0000848094908600020084908700849486020
:1004F000487208720820887209B000BD000C0140E3
:100500000064004068000020380000203C0000200B
:100510006001002010B504462D48006800F003007B
:1005200000284FD02B480068400D20602948001D4E
:10053000006800F00F00207100202749487027480C
:1005400000682168884201D0206878BB21480830C3
:10055000006860711F4808300068010AA1711D48D9
:1005600008300068010CE1711A4808300068010E7B
:10057000217218480C300068607216480C30006810
:10058000010AA17213480C300068010CE172114895
:100590000C300068010E21730D48006840F0200007
:1005A0000B490860FFF76AFE002010BDFFE701203D
:1005B000094908700648006840F0200004490860B6
:1005C0000020F2E70020044908700120EDE7000058
:1005D0000C640040B065004006000020600100206F
:1005E00030B505460A461446002308E0284601F0C7
:1005F00059F900B22080AD1CA41C581C83B20F2BEB
:10060000F4D330BDF0B500240FE07A4A32F814106C
:10061000A2F5C97232F814004FF4804200F086FC53
:1006200081B2754820F81410641CC92CEDD3724AAD
:10063000323AB2F8C011508E4FF4804200F0BEFC46
:10064000054625B901206C4932390870F0BD002DEE
:1006500004DD01206849323981F85603002D04DA9F
:1006600000206549323981F8560301244CE0621EAE
:10067000614B33F812101A4632F814004FF48042DE
:1006800000F09CFC0546281E01DB014600E04142CB
:10069000792906DD0220584932390870084644603D
:1006A000D4E7281E01DB014600E04142282906DA92
:1006B000022051493239087008464460C6E735B90E
:1006C00001204D493239087008464460BEE7002DCC
:1006D0000BDD4948323890F8560330B901204649BD
:1006E0003239087008464460B0E7002D0BDA424802
:1006F000323890F8560330B101203F493239087042
:1007000008464460A2E7641CC82CB0D300263A48CF
:10071000323890F8560390B3002427E0C821601CBB
:1007200000F045FC344931F81070C821204600F033
:100730003EFC0146304830F811003D1A002D14DA15
:10074000761C2D483238C0F858430146D1F858037A
:10075000C82100F02CFC284931F8100043F6FF7145
:10076000081A25493239C1F85C03641CC82CD5D35A
:10077000012E38D0032020493239087066E7FFE7A0
:10078000002427E0C821601C00F011FC1A4931F850
:100790001070C821204600F00AFC174931F81000FB
:1007A0003D1A002D15DD761CA1F13200C0F858432A
:1007B0000146D1F85813481CC82100F0F8FB0E4937
:1007C00031F8100043F6FF71081A0B493239C1F8AD
:1007D0005C03641CC82CD5D3012E04D00320064929
:1007E0003239087032E7002003493239087000BFFF
:1007F0002CE7000070030020DE01002000200649E5
:10080000087048600872C860C1F85803C1F85C03FA
:10081000C1F8600370470000AC01002010B57048BB
:10082000007A07286FD2DFE800F004192F6F829555
:10083000D3006C48008980B16949C8684FF4FA61F7
:1008400000F072FD4FF448406549C86000200882FE
:1008500001200872002008704860BFE06048C0684E
:10086000401C5F49C860C8684FF4FA6100F05CFD45
:100870005B48C068B0F5C83F05D14FF448405849BF
:10088000C86002200872A9E05548007B38BB00F020
:10089000F5FE53490A8A098A491C514B198203F112
:1008A000120121F812001846008A10281CD1820279
:1008B000102103F1120000F04FFB81B24848C068DC
:1008C000A0F54840020A4648323020F812100020B5
:1008D000434908820846C068401CC86004E040489C
:1008E000C068401C3E49C8603D49C8684FF4FA6181
:1008F00000F01AFD3A48C068B0F5C83F02D903209D
:10090000374908726AE068E03548C068401C3449DD
:10091000C860C8684FF4FA6100F006FD3048C0684E
:10092000B0F5D23F02D104202D49087256E02C4880
:10093000C068401E2A49C860C8684FF4FA6100F0D8
:10094000F3FC2748C068B0F5C83F02D10520244910
:10095000087243E02248007B30BB00F08FFE204944
:100960000A8A098A491C1E4B198203F1120121F8D7
:1009700012001846008A10281BD18202102103F1B0
:10098000120000F0E9FA81B21548C068A0F54840AD
:10099000020A154820F81210002011490882084662
:1009A000C068401EC86004E00D48C068401E0C4985
:1009B000C8600B49C8684FF4FA6100F0B5FC0848FC
:1009C000C068B0F5484F02D206200549087205E01C
:1009D0000021084600F0A8FC00E000BF00BF10BDE9
:1009E000AC01002068000020700300202DE9F047D2
:1009F000CA48007A062801D0BDE8F08700F032FD31
:100A0000FFF700FE01F0A0FB01F0D6FC40F207303A
:100A100001F09EFAC24801F021FB40F2073001F0DC
:100A200097FABE48007800287ED1BC49C1F860031F
:100A3000084690F85603002877D00846D0F8584367
:100A40009EE0C821204600F0B2FAB449323131F8B4
:100A50001080C821601C00F0AAFAB049323131F888
:100A600010904FF480424146484600F0A7FA0646EF
:100A7000AA48D0F85803A04228D1A848D0F85C531F
:100A800021E0280290FBF6F04FF4807101FB04088E
:100A90004FF44841404600F08AFA87B2A1490968FC
:100AA0009F4A02EB4100394601F062FA9D48006816
:100AB000401C9C4908609948D0F86003401C974945
:100AC000C1F860036D1CB542DBDB58E09348D0F8F9
:100AD0005803C830A0422CD1002521E0280290FB09
:100AE000F6F04FF4807101FB04084FF44841404692
:100AF00000F05DFA87B28B490968894A02EB410030
:100B0000394601F035FA87480068401C854908607D
:100B10008248D0F86003401C8049C1F860036D1C16
:100B20007E48D0F85C0301E0E2E031E0A842D5DC89
:100B300025E0002521E0280290FBF6F04FF48071BB
:100B400001FB04084FF44841404600F030FA87B2F8
:100B500074490968724A02EB4100394601F008FA0B
:100B600070480068401C6F4908606C48D0F860030A
:100B7000401C6A49C1F860036D1CB542DBDB641C94
:100B80006648D0F85803C930A0423FF75AAFA5E0F5
:100B90006248D0F8580300F1C80498E0C821601CEE
:100BA00000F005FA5D49323131F81080C821204645
:100BB00000F0FDF95949323131F810904FF480427C
:100BC0004146484600F0FAF906465448D0F8580322
:100BD000C830A04227D15148D0F85C5320E0280209
:100BE00090FBF6F1601CC1EB00284FF448414046F1
:100BF00000F0DDF987B24B490968494A02EB410030
:100C0000394601F0B5F947480068401C454908607D
:100C10004248D0F86003401C4049C1F860036D1C95
:100C2000B542DCDB52E03D48D0F85803A04228D161
:100C3000002520E0280290FBF6F1601CC1EB0028A3
:100C40004FF44841404600F0B2F987B2354909688F
:100C5000334A02EB4100394601F08AF93148006815
:100C6000401C304908602D48D0F86003401C2B49D7
:100C7000C1F860036D1C2948D0F85C03A842D9DC98
:100C800024E0002520E0280290FBF6F1601CC1EB77
:100C900000284FF44841404600F089F987B22149C5
:100CA00009681F4A02EB4100394601F061F91D480D
:100CB0000068401C1B4908601848D0F86003401CBD
:100CC0001649C1F860036D1CB542DCDB641E134895
:100CD000D0F85803401EA042FFF660AF0F48D0F88E
:100CE0006003B0F5804F02D004200C49087000BFAB
:100CF0000A48007818B901200B49087102E0002069
:100D00000949087101F094F9002006490860034977
:100D1000087200F045FE00BF6EE60000AC01002046
:100D20000068010814000020000000200020054990
:100D300048608860C860086148618861C86108626D
:100D4000704700004400002070B504460D466B4813
:100D50008069201A6A4948604868002801DB01461A
:100D600000E0414240F21452914213DC00206349FA
:100D7000886000256349086061494868002801DBF4
:100D8000014600E04142C82908DC01205B4981F8A6
:100D9000480003E00220594981F848005748406A5A
:100DA000281AC0115649886008464068B0F5486F57
:100DB00002DD4FF4486048605148406810F5486FC4
:100DC00002DA51484E4948604D488068B0F57A6F64
:100DD00003DD4FF47A604A4988604948806810F51D
:100DE0007A6F02DA4948464988604948B0F91000EC
:100DF0004349496848434249C860084680694449B4
:100E0000B1F912103E4A526801FB02003C49886168
:100E1000084680693E49B1F91410394A926801FBCD
:100E200002003749886108468069C011C8610846D8
:100E30008069C969A0EBC110314988610846006921
:100E4000C96908442E490861084600693149884249
:100E500003DD08462A49086108E0294800692D4950
:100E60004942884202DA0846254908612848B0F913
:100E70001600234989684843214948610846C068EB
:100E8000096908441E494969084480121C490862DE
:100E90000846006A40F6B831884203DD0846184922
:100EA000086208E01648006A1749C831884202DA29
:100EB0000846134908621248006A10490864084647
:100EC000006C002805DD0846006B00F58070C863E3
:100ED0000EE00A48006C002806DA0848006BA0F50E
:100EE00080700649C86303E00448006B0349C86387
:100EF000024A116CD06B00F017FA70BDB8000020E8
:100F0000440000201800002080F3FFFF60F0FFFF86
:100F10006800002000E02E008210034B1A808A1027
:100F20001B069A87704700004000004070B50346DA
:100F30005C1A5D186810251E01DB2E4600E06E422B
:100F4000B6EB620F07DDB0EB620F02DBA0EB6200D5
:100F500001E000EB620070BDF0B503460C460020D6
:100F600019880844012117E033F8116033F8117033
:100F7000B3F800C0A7EB0C05B5EB620F02DD33F848
:100F80001170BE1A5742B5EB670F02DA33F81170D1
:100F9000BE1830444F1CB9B2A142E5DB90FBF4F01F
:100FA000002800DA1044904200DD801AF0BD0246AD
:100FB0005018B0FBF1F301FB1300704710B5034666
:100FC000581AB0EB620F00DD801A5442B0EB640F88
:100FD00000DA104410BD704700B587B04FF4C06010
:100FE00001F02AFA0121254801F02AF940F20260B5
:100FF00001F022FA40F2036001F01EFA40F20C60A8
:1010000001F01AFA0121084601F01AF94FF40043E1
:10101000032210211A4801F0BDF8282303221821C9
:10102000184801F0B7F8102303220421154801F0F5
:10103000B1F8154801F03CFA684601F086FA002044
:1010400001904FF4827000904FF4006002900120F4
:1010500005904002039010200690002004906946FD
:10106000094801F059FA084801F016FA4FF4004116
:10107000034801F08BF807B000BD0000000230000B
:1010800000080140000C01400030014000BFFEE7B5
:1010900000BFFEE7014600292EDA314A914201DD08
:1010A000002024E02F4A914209DD2D4A52420A4491
:1010B0004FF483735A430023C3EB225017E02A4AAC
:1010C00091420BDD274A52420A44C2EB0212C2EBA4
:1010D000C2024FF49673C3EB225008E0224A5242F8
:1010E0000A4434235A434FF4C373C3EB225010F520
:1010F000D77F33DA1D4831E0194A5242914201DA72
:10110000002026E0174A5242914209DA144A52421C
:101110008A1A4FF483735A43002303EB225018E0DA
:10112000114A524291420BDA0E4A52428A1AC2EBDB
:101130000212C2EBC2024FF4967303EB225008E096
:10114000094A52428A1A34235A434FF4C37303EBB9
:101150002250B0F5D77F01DD4FF4D7707047000003
:101160006079FEFFE029ECFF406EDEFF52FEFFFFDC
:1011700010B53848007898B1374840883749086139
:101180003548408848613448408888613248408802
:10119000C86131484088486000202E49087010BD61
:1011A0002E4800692D4948612B484088086108464F
:1011B00000694969441AB4F5C84F02DDA4F54844F2
:1011C00004E014F5C84F01DA04F548442348806967
:1011D0002249C86108468069204488610846406AFF
:1011E000C0EB40111D4880691C4AD269801A40F248
:1011F0007122504301EB40101849096A084417490D
:1012000008620846006A401148620846006A496A56
:10121000A0EB41101149086208468069C969401A6B
:10122000510148430D498863486AFFF733FF0B4972
:10123000886208468069896A084408490863084842
:101240000088012804D10A4691685068FFF77CFDA8
:1012500000BFA4E72400002000000020B800002008
:101260006800002000200749086148618861C86162
:1012700008624862886208634863C863086481F84A
:1012800048007047B8000020704710B500F0EAF839
:1012900000220221480701F003FB002203214FF046
:1012A000804001F0FDFA10BD10B50122022148076F
:1012B00001F0F6FA01220321900701F0F1FA10BDC6
:1012C00010B51648008816490880144840884880A0
:1012D0001248808888801148408948810F48808959
:1012E00088810E48C089C881002008830B48C08AC5
:1012F000C8820A48008A08820848808A888207488B
:10130000408A48820548408B48834FF4FA408883DE
:10131000084600F093FA022010BD0000680000208B
:1013200098000020704700002DE9F04107460D4667
:10133000C7F30900464908800846008800F5807018
:10134000C0F309004349088008460088424931F843
:101350001000404948803E4800883F4931F810005D
:101360003B494880281E01DB014600E041420C4613
:1013700041F2DB306043040B2646C6F30B043549CB
:10138000B1F90200002801DB014600E0414261435F
:10139000C1F30F312F4A91802D49B1F90200002885
:1013A00001DB014600E041426143C1F30F31284AAD
:1013B00091809188274A9088FFF7AEFD2548B0F9C3
:1013C0000200002808DD8021244800F0E1FE02210F
:1013D000234800F0DBFE15E01E48B0F902000028AB
:1013E00008DA80211D4800F0D1FE02211C4800F0DF
:1013F000CFFE07E08021194800F0CAFE02211848FC
:1014000000F0C6FE1248B0F90200002808DD4021B5
:10141000134800F0BDFE8021114800F0B7FE15E032
:101420000B48B0F90200002808DA40210C4800F00F
:10143000ADFE80210A4800F0ABFE07E040210848DD
:1014400000F0A6FE8021064800F0A2FEBDE8F08173
:101450000E00002008000020102B000800080140AA
:10146000000C014010B500200D4988800D4988808E
:101470000A4691880A4A9088FFF74EFD80210A4863
:1014800000F084FE0221094800F080FE4021074858
:1014900000F07CFE8021054800F078FE10BD0000C1
:1014A000080000200E00002000080140000C014050
:1014B00010B500F0E3F805490880084600880449A3
:1014C000096831F810000149488010BD0000002073
:1014D0002800002000B587B04FF4C06000F0ACFFDA
:1014E00001214B4800F0ACFE40F2026000F0A4FF86
:1014F00040F2036000F0A0FF4FF4E06000F09CFFBA
:10150000802303221021434800F044FE02230322DB
:101510001021414800F03EFE4023032210213E48A6
:1015200000F038FE8023032210213B4800F032FEF9
:101530004FF4006303221821374800F02BFE4FF4CC
:10154000806303221821344800F024FE4FF08040CD
:1015500001F0DCF903A801F0D0FA0020ADF80C008E
:10156000ADF80E00ADF8100040F2FF3005900020FD
:10157000ADF818008DF81A0003A94FF0804001F073
:1015800039FA684601F0BAF90120ADF800000420EC
:10159000ADF802000020ADF80400ADF808006A467E
:1015A0000221480701F046F86A4603214FF08040C7
:1015B00001F040F864220221480701F05EF9602240
:1015C0000221480701F02CF964220321100701F0E1
:1015D00054F9602203214FF0804001F021F90122EB
:1015E0000221480701F05CF901220321900701F074
:1015F00057F90121880701F074FA4FF0804001F09B
:1016000013F84FF0804001F0EFF907B000BD000083
:101610000003180000080140000C01401FB540F213
:10162000017000F009FF144801F070F9684601F0FC
:1016300064FA6C20ADF800000020ADF80200ADF8AF
:101640000400312002900020ADF80C008DF80E004F
:101650006946094801F0CEF9074800F0E5FF01218D
:10166000054801F037FA002211461D2000F044FE23
:10167000014801F0B9F91FBD0004004008B54FF45E
:101680000340ADF800004FF40440ADF80200BDF88F
:10169000000000F0C5F94FF6FF7000F0C1F91149E4
:1016A0000880012010490860BDF8020000F0B8F978
:1016B0004FF6FF7000F0B4F90C49088001200C4986
:1016C000C1F8BC01074801780848008861F31F2071
:1016D00008490860084600688008086008460088D5
:1016E00080B208BD2C000020BC0121422E00002049
:1016F000000021423000002000B51C491C48FEF7C4
:101700006FFF1A4800881B49088018480089088123
:101710001648B0F902001849086014484088154975
:10172000488008460089022802D007201249086034
:101730000E4880880F4988800C48408948810B48B2
:101740008089888109488089C8810848008B08837E
:101750000648008A08820548408A48820348808AF1
:1017600088820248C08AC88200BD0000980000201C
:1017700000EC0108680000206001002001202949D8
:1017800048702948406A4FF4484190FBF1F000B29C
:1017900026494884244880698862234890F8480094
:1017A00001280CD1084680782149C8720846C07AC1
:1017B0002049497940EA01101D49C8720AE0002019
:1017C0001B49C8720846C07A1A49497940EA011093
:1017D0001749C872174881791548017315488079EF
:1017E0001549096831F81000010A1148417312487F
:1017F000006801780E4881730C48806A010E0C481D
:10180000C1730A48806A010C094801740748008DB9
:10181000010A07484174054890F82810044881746B
:101820007047000006000020B8000020680000207B
:101830006001002004010020380000202DE9F04163
:101840000646374600F080FC00F0B6FD40F2073057
:1018500000F07EFB124800F001FC054640F2073024
:1018600000F076FBA5B900240FE03A8891B20C4A4B
:1018700002EB440000F07CFB054640F2073000F02C
:1018800067FBBF1C05B102E0641C0F2CEDD300BF49
:1018900000F0CEFB15B10120BDE8F0810020FBE790
:1018A00000EC010801460888704770477047000047
:1018B00010B51448006840F001001249086008465D
:1018C0004068114908400F494860084600680F49C0
:1018D00008400C4908600846006820F48020086031
:1018E000084640680A4908400649486008460068BA
:1018F00006490840034908604FF41F00886000F063
:101900008FFE10BD001002400C00FFE8FFFFF6FE46
:10191000FFFF00F710B50121194801F0DFF8194861
:10192000FEF7F8FD1848007850B9174840780128AC
:1019300006D10020144948701449154800F0BCF93C
:1019400014480089012812D113480089022802D0C6
:101950001148008920B9FEF751FF01200E49088186
:10196000FFF7A2FCFEF75AFFFFF740F807E009482F
:101970000089022803D1FFF79BFDFFF7F9FB10BD9B
:101980000004004004010020060000206001002047
:1019900000640040680000209800002000BFFEE7BF
:1019A00010B5FFF772FC012013490880072048801A
:1019B000022008811149088100200F4988800120F8
:1019C00048814FF47A708881C88144F655100883A5
:1019D0004FF496700882502048824FF496708882A7
:1019E000FA20C88241F2883048834FF4FA40888355
:1019F0000846FFF723FF10BD980000206800002074
:101A000002E008C8121F08C1002AFAD170477047C7
:101A1000002001E001C1121F002AFBD17047000025
:101A200070B5044600200D49086000BF02210C4833
:101A300000F06AFD0028F9D02146094800F035FD84
:101A400000BF0121064800F05FFD0028F9D00448DE
:101A500000F027FD0546284670BD0000BC0121426C
:101A60000030014010B504460548844207D140F2D9
:101A7000194000F001FD40F2194000F0EDFC10BDEE
:101A80000064004010B50021837A012202FA03F1BC
:101A90003E4A126842F001023C4B1A603B4A1C323B
:101AA00012688A43394B1C331A60C289DAB9374A43
:101AB0000C3212688A43354B0C331A60C288344B9F
:101AC00003EA024243881A434389304C403444F8C5
:101AD000332082882E4B03EA024203881A4343894B
:101AE00004EBC3035A60C289012A1BD1274A0C3276
:101AF00012680A43254B0C331A600288244B03EA10
:101B0000024243881A434389204C403444F833202E
:101B100082881F4B03EA0242C3881A43438904EBBD
:101B2000C3035A6082893AB9184A121D12688A435F
:101B3000164B1B1D1A6006E0144A121D12680A4358
:101B4000124B1B1D1A6002893AB9104A14321268EE
:101B50008A430E4B14331A6006E00C4A14321268A2
:101B60000A430A4B14331A60027C012A06D1074A41
:101B70001C3212680A43054B1C331A60034A126870
:101B800022F00102014B1A6010BD00000066004007
:101B90000000FFFF70B502464FF6FF730020146887
:101BA00024F002041460146844F00104146000E09E
:101BB0005B1E546804F001040CB9002BF8D1546882
:101BC00004F001040CB9002074E00C784FF040459B
:101BD00005EA84744D784FF0407606EA05652C439B
:101BE0008D784FF4702606EA05452C43CD784FF4E6
:101BF000E00606EA05552C434D896D1EC5F309051F
:101C00002C43D4610C79012C04D1146844F0800475
:101C1000146003E0146824F0800414604C79012CF3
:101C200004D1146844F04004146003E0146824F004
:101C3000400414608C79012C04D1146844F0200411
:101C4000146003E0146824F020041460CC79012CA3
:101C500004D1146824F01004146003E0146844F004
:101C6000100414600C7A012C04D1146824F00804C8
:101C7000146003E0146844F0080414604C7A012CEA
:101C800004D1146844F00404146003E0146824F0E0
:101C900004041460146824F0010414604FF6FF7308
:101CA00000E05B1E546804F001040CB1002BF8D175
:101CB00003B1012070BD000030B502460B46002183
:101CC000906800F08060B0F1806F00D110E0906803
:101CD00000F00060B0F1006F01D1012108E09068D0
:101CE00000F08050B0F1805F01D1022100E00321BB
:101CF000032901D1032030BD02F5C07000EB0110B3
:101D0000006800F0010402F5C07000EB01100460EF
:101D1000187A88B918883B4C04EA40505C7A204312
:101D200002F5C07404EB01142468204302F5C0746A
:101D300004EB0114206013E06FF00704586804EA14
:101D4000C0001C7A20435C7A204302F5C07404EB87
:101D500001142468204302F5C07404EB01142060D0
:101D600002F5C27000EB0110006820F00F0402F5CC
:101D7000C27000EB0110046002F5C27000EB0110AC
:101D800000689C7A204302F5C27404EB01142060C1
:101D9000987B4FF07F4404EA00605C7B4FF47F0542
:101DA00005EA044420431C7B2D1205EA0424204349
:101DB000DC7A204302F5C47404EB01142060987CA3
:101DC0002C0404EA00605C7C2D0205EA04442043F4
:101DD0001C7C2D1205EA04242043DC7B204302F501
:101DE000C67404EB0114206002F5C07000EB011012
:101DF000006840F0010402F5C07000EB01100460BF
:101E0000084678E70000E0FF10B5024632B1012A2B
:101E100016D0022A20D0032A42D12EE000234B7193
:101E2000CB718B7140F2FF334B8100230B724B70EF
:101E300002238B700023CB700B714B720B7031E05F
:101E40000123CB8100230B740B810B804B808B8093
:101E5000CB808B814B8125E0002005E0002401F13F
:101E60000B031C54431CD8B20828F7D300238B72F1
:101E70004B600B724B720B6014E0002005E00024F5
:101E800001F10B031C54431CD8B20828F7D30023DC
:101E90008B724B600B7281F84B304B720B6001E020
:101EA00000BFFEE700BF10BD00B50346012200BF22
:101EB00000F00CF802465B1E012A01D1002BF7D17D
:101EC000012A00D10422104600BD000000200A496A
:101ED000C96801F0010109B101200CE00649C96897
:101EE00001F0100109B1032005E00349C96801F0C0
:101EF000040101B1022070470020024000B50346F2
:101F0000012200BF00F00CF802465B1E012A01D13D
:101F1000002BF7D1012A00D10422104600BD000099
:101F200000200A49C96C01F0010109B101200CE04F
:101F30000649C96C01F0100109B1032005E003490D
:101F4000C96C01F0040101B1022070470020024079
:101F5000064A02EB9011096800F01F0301229A4023
:101F60001143024B03EB90121160704700200240B6
:101F700070B504460D4600262A480088B0F5007F5B
:101F800035D92948844219D24FF47020FFF78CFFCD
:101F90000646002E43D12548006940F00100234940
:101FA000086125804FF47020FFF77EFF06461F482A
:101FB000006920F001001D49086130E04FF47020F5
:101FC000FFF79CFF064656BB1848006D40F0010025
:101FD0001649086525804FF47020FFF78FFF0646ED
:101FE0001248006D20F001001049086517E04FF419
:101FF0007020FFF759FF06468EB90C48006940F083
:1020000001000A49086125804FF47020FFF74CFF5A
:1020100006460648006920F0010004490861304680
:1020200070BD0000E0F7FF1FFFFF0708002002401F
:102030000848006940F080000649086106480088A9
:10204000B0F5007F04D90846006D40F080000865B7
:102050007047000000200240E0F7FF1F30B5054642
:1020600036480088B0F5007F48D9354885421ED2F1
:102070004FF47020FFF718FF0446002C5BD1314865
:10208000006940F002002F49086108464561006977
:1020900040F0400008614FF47020FFF705FF044650
:1020A0002848006920F002002649086143E04FF407
:1020B0007020FFF723FF0446002C3CD12148006D1F
:1020C00040F002001F49086508464565C06900F0F8
:1020D000020008B1084645611A48006D40F0400012
:1020E000184908654FF47020FFF708FF04461548AB
:1020F000006D20F00200134908651CE04FF47020C9
:10210000FFF7D2FE0446B4B90E48006940F0020061
:102110000C49086108464561006940F040000861CB
:102120004FF47020FFF7C0FE04460648006920F017
:10213000020004490861204630BD0000E0F7FF1F9F
:10214000FFFF0708002002400C48006900F08000F3
:1021500020B10B48094948600A4848600A4800888D
:10216000B0F5007F09D90548006D00F0800020B16E
:10217000034802494864034848647047002002400D
:1021800023016745AB89EFCDE0F7FF1F4161704741
:1021900001617047F0B5044616460025002201F0A3
:1021A0000F0501F0100707B1354300201EE001279D
:1021B00087401F40C7B122684FEA800C0F2707FAFB
:1021C0000CF7BA43870005FA07F73A43282904D1E8
:1021D000012787401F40676105E0482903D1012797
:1021E00087401F4027612260471CB8B20828DED311
:1021F000082022E0012787401F40E7B16268A0F174
:1022000008074FEA870C0F2707FA0CF7BA43A0F12B
:102210000807BF0005FA07F73A43282904D1012728
:1022200087401F40676105E0482903D101278740A7
:102230001F4027616260471CB8B21028DAD3F0BD96
:10224000F0B50A46002300240021002500F00046D6
:10225000B6F1004F02D11D4EF16901E01B4E7168CD
:10226000C0F3034583B200F44016B6F5401F08D111
:1022700021F07061154E766826F07066134F7E600F
:1022800012E000F48016B6F5801F06D1032606FA88
:1022900005F4A14341F0706106E0460D360103FAF2
:1022A00006F6B14341F0706122B1460D360103FAE2
:1022B00006F6314300F00046B6F1004F02D1034E5E
:1022C000F16101E0014E7160F0BD000000000140CD
:1022D0004FF4A06000F066F8FEF7C4FFFFF70CFAB9
:1022E00000F082F8FEF778FEFEF798F8FFF7F2F8B4
:1022F000FFF794F900BFFEE72DE9F04103460D46D4
:10230000164600240027A0462448006800F4E06038
:10231000B0F5A06F15D006DCB0F5407F18D0B0F551
:10232000806F19D110E0B0F5C06F06D0B0F5E06F46
:1023300012D100274FF0040815E001274FF00308E1
:1023400011E00227B8460EE003274FF001080AE02B
:1023500004274FF0000806E04FF4A06000F022F8D8
:102360000227B84600BF00BFC7F1040005FA00F419
:10237000C8F104010F20C84030400443240108483C
:10238000C45403F01F01012088405911890001F154
:10239000E021C1F80001BDE8F08100000CED00E093
:1023A00000E400E002490143024A11607047000066
:1023B0000000FA050CED00E00848006900F4007028
:1023C00020B90748054988600648886000BF03486F
:1023D000006900F400700028F9D070470020024026
:1023E00023016745AB89EFCD10B540F2026000F0E4
:1023F00023F84FF48053022210210D48FFF7CAFE44
:102400004FF480510A48FFF7C1FE0A48408901286D
:1024100004D101030648FFF7BBFE07E005484089E9
:1024200020B94FF480510248FFF7B0FE10BD000004
:102430000008014068000020064A02EB901109687C
:1024400000F01F0301229A401143024B03EB90124C
:102450001160704700100240064A02EB90110968B3
:1024600000F01F0301229A409143024B03EB9012AC
:102470001160704700100240064A02EB9011096893
:1024800000F01F0301229A401143024B03EB90120C
:102490001160704700100240016841F04001016086
:1024A00070470146C86880B27047C160704700003D
:1024B00010B504461348204470B1B0F5806F14D0B5
:1024C000B0F5784F1AD14FF44370FFF7D5FF4FF4B2
:1024D0004370FFF7C1FF12E040F20E40FFF7CCFF60
:1024E00040F20E40FFF7B8FF09E040F20F40FFF75F
:1024F000C3FF40F20F40FFF7AFFF00E000BF00BF97
:1025000010BD000000C8FFBF02469068084008B137
:10251000012070470020FCE702460020106800F40C
:1025200041500B6818434B6818438B681843CB68BD
:1025300018430B6918434B6918438B6918431060A3
:10254000D36923F40063D3617047002101604160C7
:102550008160C1600161416181617047002000219B
:102560002C4A126842F480322A4B1A6000BF401C89
:10257000284A126802F4003119B94FF6FF729042EE
:10258000F5D1244A126802F400320AB900BFFEE70E
:10259000204A52681F4B5A601A4652685A601A46BF
:1025A000526842F480625A601A46526822F44032FD
:1025B0005A601A46526842F440325A601A465268CB
:1025C000154B1A40134B5A601A465268134B1A4364
:1025D000104B5A601A46126842F080721A6000BFAF
:1025E0000C4A126802F00072002AF9D0094A5268B7
:1025F00022F00302074B5A601A46526842F0020268
:102600005A6000BF034A526802F00802002AF9D05B
:102610007047000000100240FFFFC3F700000408ED
:1026200010B5FFF79BFF10BD016841F0800101600C
:102630007047000010B531B101293FD002297DD08B
:1026400003297CD1BFE0036A23F00103036283699D
:1026500023F003038361036A148823430362036A3C
:1026600023F002030362036A9488234303626A4BE4
:10267000984202D0694B98421FD1036A23F00403A9
:102680000362036A548823430362036A23F0080346
:102690000362036AD48823430362436823F480738C
:1026A00043604368148923434360436823F4007301
:1026B00043604368548923434360ABE0036A23F0DB
:1026C00010030362836923F440738361036A1488EF
:1026D00043EA04130362036A23F020030362036ADC
:1026E000948843EA041303624B4B984202D04B4B4D
:1026F000984226D1036A23F040030362036A548898
:1027000043EA04130362036A23F080030362036A4B
:10271000D48843EA04130362436823F4806343606C
:102720004368148943EA84034360436823F40063E5
:1027300043604368548943EA840301E002E068E0AF
:10274000436067E0036A23F480730362C36923F084
:102750000303C361036A148843EA04230362036A20
:1027600023F400730362036A948843EA0423036238
:10277000294B984202D0294B984223D1036A23F473
:1027800080630362036A548843EA04230362036A92
:1027900023F400630362036AD48843EA04230362D8
:1027A000436823F4805343604368148943EA041365
:1027B0004360436823F4005343604368548943EA09
:1027C0000413436026E0036A23F480530362C36961
:1027D00023F44073C361036A148843EA0433036239
:1027E000036A23F400530362036A948843EA0433C0
:1027F0000362094B984202D0084B984208D14368C3
:1028000023F4804343604368148943EA841343609C
:1028100000E000BF00BF10BD002C014000340140AB
:1028200031B101290CD0022913D0032922D118E09B
:10283000836923F0700383618369134383611AE022
:10284000836923F4E0438361836943EA022383615C
:1028500011E0C36923F07003C361C3691343C3610B
:1028600009E0C36923F4E043C361C36943EA022377
:10287000C36100E000BF00BF704731B1012906D03D
:10288000022906D0032908D105E0426306E08263ED
:1028900004E0C26302E0026400E000BF00BF7047D2
:1028A00031B101290CD0022913D0032923D119E019
:1028B000036A23F001030362036A134303621BE00C
:1028C000036A23F010030362036A43EA02130362FC
:1028D00012E0036A23F480730362036A43EA02236B
:1028E000036209E0036A23F480530362036A43EA44
:1028F0000233036200E000BF00BF70470021018087
:1029000041808180C18001814181704710B50446BA
:102910003349601A8C4244D00CDCB4F1804F1CD097
:102920003048204410B3B0F5806F28D0B0F5006F68
:1029300052D12DE0B0F5806F3CD0B0F58E3F03D082
:10294000B0F5923F48D13EE040F20B30FFF794FDE6
:1029500040F20B30FFF780FD3FE04FF48060FFF75F
:102960008BFD4FF48060FFF777FD36E040F20140C9
:10297000FFF782FD40F20140FFF76EFD2DE040F2CF
:102980000240FFF779FD40F20240FFF765FD24E0C9
:1029900040F20340FFF770FD40F20340FFF75CFD9B
:1029A0001BE040F20440FFF767FD40F20440FFF7F0
:1029B00053FD12E040F20540FFF75EFD40F2054096
:1029C000FFF74AFD09E040F20D30FFF755FD40F2F8
:1029D0000D30FFF741FD00E000BF00BF10BD00005B
:1029E0000010004000FCFFBF016841F001010160E0
:1029F000704700000A888262294A904220D0B0F1D4
:102A0000804F1DD0274A90421AD0274A904217D0B3
:102A1000264A904214D0264A904211D0254A90422C
:102A20000ED0254A90420BD0244A904208D0244A26
:102A3000904205D0234A904202D0234A90420FD1BF
:102A4000026822F07002026002688B7803F0600373
:102A50001A43026002680B7903F010031A43026004
:102A60008A68C262194A90420CD0194A904209D031
:102A7000026822F44072026002688B8903F440739A
:102A80001A430260064A904202D0094A904201D19C
:102A90008A7B0263426942F0010242617047000092
:102AA000002C01400004004000080040000C0040E1
:102AB00000340140004C01400050014000540140EE
:102AC00000180040001C00400020004000100040A2
:102AD00000140040C2680A43C2607047CA430261E2
:102AE0007047012904D1426C42F40042426403E081
:102AF000426C22F400424264704700210180418010
:102B000081804FF6FF718160002181818173704760
:102B10000000190032004B0065007E009700B000F5
:102B2000C900E200FB0014012D0146015F0178019C
:102B30009101AA01C301DC01F5010E022702400246
:102B4000590272028B02A302BC02D502EE020603F6
:102B50001F0338035003690381039A03B203CB03B5
:102B6000E303FC0314042C0444045D0475048D0485
:102B7000A504BD04D504ED0405051D0534054C056B
:102B800064057C059305AB05C205DA05F105080669
:102B90001F0637064E0665067C069306AA06C10682
:102BA000D706EE0605071B07320748075E077507BD
:102BB0008B07A107B707CD07E307F9070E0824081D
:102BC0003A084F0865087A088F08A508BA08CF08A0
:102BD000E408F8080D09220937094B095F0974094F
:102BE00088099C09B009C409D809EC09FF09130A2E
:102BF000260A3A0A4D0A600A730A860A990AAC0A3A
:102C0000BF0AD10AE40AF60A080B1B0B2D0B3E0B78
:102C1000500B620B740B850B970BA80BB90BCA0BEF
:102C2000DB0BEC0BFC0B0D0C1E0C2E0C3E0C4E0C9F
:102C30005E0C6E0C7E0C8E0C9D0CAC0CBC0CCB0C8C
:102C4000DA0CE90CF80C060D150D230D320D400DB4
:102C50004E0D5C0D690D770D850D920D9F0DAC0D20
:102C6000B90DC60DD30DDF0DEC0DF80D040E100ED1
:102C70001C0E280E340E3F0E4B0E560E610E6C0EBF
:102C8000770E810E8C0E960EA10EAB0EB50EBF0EFA
:102C9000C80ED20EDB0EE40EEE0EF70EFF0E080F7E
:102CA000110F190F210F290F310F390F410F480F45
:102CB000500F570F5E0F650F6C0F720F790F7F0F5C
:102CC000850F8B0F910F970F9C0FA20FA70FAC0FC3
:102CD000B10FB60FBB0FBF0FC40FC80FCC0FD00F73
:102CE000D40FD70FDB0FDE0FE10FE40FE70FEA0F72
:102CF000EC0FEF0FF10FF30FF50FF70FF80FFA0FBF
:102D0000FB0FFC0FFD0FFE0FFF0FFF0F0010001059
:102D1000001000100010FF0FFF0FFE0FFD0FFC0F43
:102D2000FB0FFA0FF80FF70FF50FF30FF10FEF0F7F
:102D3000EC0FEA0FE70FE40FE10FDE0FDB0FD70F09
:102D4000D40FD00FCC0FC80FC40FBF0FBB0FB60FDF
:102D5000B10FAC0FA70FA20F9C0F970F910F8B0F06
:102D6000850F7F0F790F720F6C0F650F5E0F570F76
:102D7000500F480F410F390F310F290F210F190F35
:102D8000110F080FFF0EF70EEE0EE40EDB0ED20E43
:102D9000C80EBF0EB50EAB0EA10E960E8C0E810E98
:102DA000770E6C0E610E560E4B0E3F0E340E280E33
:102DB0001C0E100E040EF80DEC0DDF0DD30DC60D1C
:102DC000B90DAC0D9F0D920D850D770D690D5C0D44
:102DD0004E0D400D320D230D150D060DF80CE90CAE
:102DE000DA0CCB0CBC0CAC0C9D0C8E0C7E0C6E0C5F
:102DF0005E0C4E0C3E0C2E0C1E0C0D0CFC0BEC0B4A
:102E0000DB0BCA0BB90BA80B970B850B740B620B72
:102E1000500B3E0B2D0B1B0B080BF60AE40AD10AD4
:102E2000BF0AAC0A990A860A730A600A4D0A3A0A6E
:102E3000260A130AFF09EC09D809C409B0099C093C
:102E4000880974095F094B09370922090D09F80837
:102E5000E408CF08BA08A5088F087A0865084F0863
:102E60003A0824080E08F907E307CD07B707A107BA
:102E70008B0775075E07480732071B070507EE0635
:102E8000D706C106AA0693067C0665064E063706D7
:102E90001F060806F105DA05C205AB0593057C059A
:102EA00064054C0534051D050505ED04D504BD0478
:102EB000A5048D0475045D0444042C041404FC036F
:102EC000E303CB03B2039A0381036903500338037E
:102ED0001F030603EE02D502BC02A3028B0272029C
:102EE0005902400227020E02F501DC01C301AA01CA
:102EF000910178015F0146012D011401FB00E20000
:102F0000C900B00097007E0065004B003200190038
:102F10000000E7FFCEFFB5FF9BFF82FF69FF50FF78
:102F200037FF1EFF05FFECFED3FEBAFEA1FE88FEB2
:102F30006FFE56FE3DFE24FE0BFEF2FDD9FDC0FDE8
:102F4000A7FD8EFD75FD5DFD44FD2BFD12FDFAFC18
:102F5000E1FCC8FCB0FC97FC7FFC66FC4EFC35FC39
:102F60001DFC04FCECFBD4FBBCFBA3FB8BFB73FB49
:102F70005BFB43FB2BFB13FBFBFAE3FACCFAB4FA43
:102F80009CFA84FA6DFA55FA3EFA26FA0FFAF8F925
:102F9000E1F9C9F9B2F99BF984F96DF956F93FF9EC
:102FA00029F912F9FBF8E5F8CEF8B8F8A2F88BF891
:102FB00075F85FF849F833F81DF807F8F2F7DCF711
:102FC000C6F7B1F79BF786F771F75BF746F731F76E
:102FD0001CF708F7F3F6DEF6C9F6B5F6A1F68CF69F
:102FE00078F664F650F63CF628F614F601F6EDF5A0
:102FF000DAF5C6F5B3F5A0F58DF57AF567F554F574
:1030000041F52FF51CF50AF5F8F4E5F4D3F4C2F414
:10301000B0F49EF48CF47BF469F458F447F436F47D
:1030200025F414F404F4F3F3E2F3D2F3C2F3B2F3AD
:10303000A2F392F382F372F363F354F344F335F3A0
:1030400026F317F308F3FAF2EBF2DDF2CEF2C0F258
:10305000B2F2A4F297F289F27BF26EF261F254F2CC
:1030600047F23AF22DF221F214F208F2FCF1F0F1FB
:10307000E4F1D8F1CCF1C1F1B5F1AAF19FF194F1ED
:1030800089F17FF174F16AF15FF155F14BF141F192
:1030900038F12EF125F11CF112F109F101F1F8F0EE
:1030A000EFF0E7F0DFF0D7F0CFF0C7F0BFF0B8F007
:1030B000B0F0A9F0A2F09BF094F08EF087F081F0D0
:1030C0007BF075F06FF069F064F05EF059F054F049
:1030D0004FF04AF045F041F03CF038F034F030F079
:1030E0002CF029F025F022F01FF01CF019F016F05A
:1030F00014F011F00FF00DF00BF009F008F006F0ED
:1031000005F004F003F002F001F001F000F000F02F
:1031100000F000F000F001F001F002F003F004F024
:1031200005F006F008F009F00BF00DF00FF011F0CB
:1031300014F016F019F01CF01FF022F025F029F021
:103140002CF030F034F038F03CF041F045F04AF02B
:103150004FF054F059F05EF064F069F06FF075F0E4
:103160007BF081F087F08EF094F09BF0A2F0A9F054
:10317000B0F0B8F0BFF0C7F0CFF0D7F0DFF0E7F075
:10318000EFF0F8F001F109F112F11CF125F12EF147
:1031900038F141F14BF155F15FF16AF174F17FF1D2
:1031A00089F194F19FF1AAF1B5F1C1F1CCF1D8F117
:1031B000E4F1F0F1FCF108F214F221F22DF23AF20E
:1031C00047F254F261F26EF27BF289F297F2A4F2C6
:1031D000B2F2C0F2CEF2DDF2EBF2FAF208F317F33C
:1031E00026F335F344F354F363F372F382F392F36B
:1031F000A2F3B2F3C2F3D2F3E2F3F3F304F414F460
:1032000025F436F447F458F469F47BF48CF49EF416
:10321000B0F4C2F4D3F4E5F4F8F40AF51CF52FF594
:1032200041F554F567F57AF58DF5A0F5B3F5C6F5DA
:10323000DAF5EDF501F614F628F63CF650F664F6EC
:1032400078F68CF6A1F6B5F6C9F6DEF6F3F608F7D1
:103250001CF731F746F75BF771F786F79BF7B1F785
:10326000C6F7DCF7F2F707F81DF833F849F85FF80E
:1032700075F88BF8A2F8B8F8CEF8E5F8FBF812F973
:1032800029F93FF956F96DF984F99BF9B2F9C9F9B1
:10329000E1F9F8F90FFA26FA3EFA55FA6DFA84FACE
:1032A0009CFAB4FACCFAE3FAFBFA13FB2BFB43FBD0
:1032B0005BFB73FB8BFBA3FBBCFBD4FBECFB04FCB9
:1032C0001DFC35FC4EFC66FC7FFC97FCB0FCC8FC8A
:1032D000E1FCFAFC12FD2BFD44FD5DFD75FD8EFD4C
:1032E000A7FDC0FDD9FDF2FD0BFE24FE3DFE56FEFE
:1032F0006FFE88FEA1FEBAFED3FEECFE05FF1EFFA8
:1033000037FF50FF69FF82FF9BFFB5FFCEFFE7FF4E
:1033100000000000343300080000002044000000DA
:10332000001A00087833000844000020CC08000090
:10333000101A00080000000000000000000000005B
:10334000000000000000000000000000000000007D
:1033500000000000000000000100000000680108FB
:10336000000000000000000000000000000000005D
:08337000000000000000000055
:0400000508000105E9
:00000001FF
